{
  "_format": "hh-sol-artifact-1",
  "contractName": "VeriChainToken",
  "sourceName": "Contracts/VeriChainToken.sol",
  "abi": [
    {
      "inputs": [],
      "stateMutability": "nonpayable",
      "type": "constructor"
    },
    {
      "anonymous": false,
      "inputs": [
        {
          "indexed": true,
          "internalType": "address",
          "name": "owner",
          "type": "address"
        },
        {
          "indexed": true,
          "internalType": "address",
          "name": "approved",
          "type": "address"
        },
        {
          "indexed": true,
          "internalType": "uint256",
          "name": "tokenId",
          "type": "uint256"
        }
      ],
      "name": "Approval",
      "type": "event"
    },
    {
      "anonymous": false,
      "inputs": [
        {
          "indexed": true,
          "internalType": "address",
          "name": "owner",
          "type": "address"
        },
        {
          "indexed": true,
          "internalType": "address",
          "name": "operator",
          "type": "address"
        },
        {
          "indexed": false,
          "internalType": "bool",
          "name": "approved",
          "type": "bool"
        }
      ],
      "name": "ApprovalForAll",
      "type": "event"
    },
    {
      "anonymous": false,
      "inputs": [
        {
          "indexed": true,
          "internalType": "address",
          "name": "from",
          "type": "address"
        },
        {
          "indexed": true,
          "internalType": "address",
          "name": "to",
          "type": "address"
        },
        {
          "indexed": true,
          "internalType": "uint256",
          "name": "tokenId",
          "type": "uint256"
        }
      ],
      "name": "Transfer",
      "type": "event"
    },
    {
      "inputs": [
        {
          "internalType": "address",
          "name": "to",
          "type": "address"
        },
        {
          "internalType": "uint256",
          "name": "tokenId",
          "type": "uint256"
        }
      ],
      "name": "approve",
      "outputs": [],
      "stateMutability": "nonpayable",
      "type": "function"
    },
    {
      "inputs": [
        {
          "internalType": "address",
          "name": "owner",
          "type": "address"
        }
      ],
      "name": "balanceOf",
      "outputs": [
        {
          "internalType": "uint256",
          "name": "",
          "type": "uint256"
        }
      ],
      "stateMutability": "view",
      "type": "function"
    },
    {
      "inputs": [
        {
          "internalType": "string",
          "name": "tokenURI",
          "type": "string"
        }
      ],
      "name": "claimCert",
      "outputs": [
        {
          "internalType": "uint256",
          "name": "",
          "type": "uint256"
        }
      ],
      "stateMutability": "nonpayable",
      "type": "function"
    },
    {
      "inputs": [
        {
          "internalType": "uint256",
          "name": "tokenId",
          "type": "uint256"
        }
      ],
      "name": "getApproved",
      "outputs": [
        {
          "internalType": "address",
          "name": "",
          "type": "address"
        }
      ],
      "stateMutability": "view",
      "type": "function"
    },
    {
      "inputs": [
        {
          "internalType": "address",
          "name": "owner",
          "type": "address"
        },
        {
          "internalType": "address",
          "name": "operator",
          "type": "address"
        }
      ],
      "name": "isApprovedForAll",
      "outputs": [
        {
          "internalType": "bool",
          "name": "",
          "type": "bool"
        }
      ],
      "stateMutability": "view",
      "type": "function"
    },
    {
      "inputs": [
        {
          "internalType": "address",
          "name": "to",
          "type": "address"
        }
      ],
      "name": "issuedCert",
      "outputs": [],
      "stateMutability": "nonpayable",
      "type": "function"
    },
    {
      "inputs": [
        {
          "internalType": "address",
          "name": "",
          "type": "address"
        }
      ],
      "name": "issuedCerts",
      "outputs": [
        {
          "internalType": "bool",
          "name": "",
          "type": "bool"
        }
      ],
      "stateMutability": "view",
      "type": "function"
    },
    {
      "inputs": [],
      "name": "name",
      "outputs": [
        {
          "internalType": "string",
          "name": "",
          "type": "string"
        }
      ],
      "stateMutability": "view",
      "type": "function"
    },
    {
      "inputs": [
        {
          "internalType": "uint256",
          "name": "tokenId",
          "type": "uint256"
        }
      ],
      "name": "ownerOf",
      "outputs": [
        {
          "internalType": "address",
          "name": "",
          "type": "address"
        }
      ],
      "stateMutability": "view",
      "type": "function"
    },
    {
      "inputs": [
        {
          "internalType": "address",
          "name": "",
          "type": "address"
        }
      ],
      "name": "personToCert",
      "outputs": [
        {
          "internalType": "string",
          "name": "",
          "type": "string"
        }
      ],
      "stateMutability": "view",
      "type": "function"
    },
    {
      "inputs": [
        {
          "internalType": "address",
          "name": "from",
          "type": "address"
        },
        {
          "internalType": "address",
          "name": "to",
          "type": "address"
        },
        {
          "internalType": "uint256",
          "name": "tokenId",
          "type": "uint256"
        }
      ],
      "name": "safeTransferFrom",
      "outputs": [],
      "stateMutability": "nonpayable",
      "type": "function"
    },
    {
      "inputs": [
        {
          "internalType": "address",
          "name": "from",
          "type": "address"
        },
        {
          "internalType": "address",
          "name": "to",
          "type": "address"
        },
        {
          "internalType": "uint256",
          "name": "tokenId",
          "type": "uint256"
        },
        {
          "internalType": "bytes",
          "name": "data",
          "type": "bytes"
        }
      ],
      "name": "safeTransferFrom",
      "outputs": [],
      "stateMutability": "nonpayable",
      "type": "function"
    },
    {
      "inputs": [
        {
          "internalType": "address",
          "name": "operator",
          "type": "address"
        },
        {
          "internalType": "bool",
          "name": "approved",
          "type": "bool"
        }
      ],
      "name": "setApprovalForAll",
      "outputs": [],
      "stateMutability": "nonpayable",
      "type": "function"
    },
    {
      "inputs": [
        {
          "internalType": "bytes4",
          "name": "interfaceId",
          "type": "bytes4"
        }
      ],
      "name": "supportsInterface",
      "outputs": [
        {
          "internalType": "bool",
          "name": "",
          "type": "bool"
        }
      ],
      "stateMutability": "view",
      "type": "function"
    },
    {
      "inputs": [],
      "name": "symbol",
      "outputs": [
        {
          "internalType": "string",
          "name": "",
          "type": "string"
        }
      ],
      "stateMutability": "view",
      "type": "function"
    },
    {
      "inputs": [
        {
          "internalType": "uint256",
          "name": "tokenId",
          "type": "uint256"
        }
      ],
      "name": "tokenURI",
      "outputs": [
        {
          "internalType": "string",
          "name": "",
          "type": "string"
        }
      ],
      "stateMutability": "view",
      "type": "function"
    },
    {
      "inputs": [
        {
          "internalType": "address",
          "name": "from",
          "type": "address"
        },
        {
          "internalType": "address",
          "name": "to",
          "type": "address"
        },
        {
          "internalType": "uint256",
          "name": "tokenId",
          "type": "uint256"
        }
      ],
      "name": "transferFrom",
      "outputs": [],
      "stateMutability": "nonpayable",
      "type": "function"
    }
  ],
  "bytecode": "0x60806040523480156200001157600080fd5b506040518060400160405280600e81526020017f56657269436861696e546f6b656e0000000000000000000000000000000000008152506040518060400160405280600481526020017f436572740000000000000000000000000000000000000000000000000000000081525081600090816200008f919062000365565b508060019081620000a1919062000365565b50505033600760006101000a81548173ffffffffffffffffffffffffffffffffffffffff021916908373ffffffffffffffffffffffffffffffffffffffff1602179055506200044c565b600081519050919050565b7f4e487b7100000000000000000000000000000000000000000000000000000000600052604160045260246000fd5b7f4e487b7100000000000000000000000000000000000000000000000000000000600052602260045260246000fd5b600060028204905060018216806200016d57607f821691505b60208210810362000183576200018262000125565b5b50919050565b60008190508160005260206000209050919050565b60006020601f8301049050919050565b600082821b905092915050565b600060088302620001ed7fffffffffffffffffffffffffffffffffffffffffffffffffffffffffffffffff82620001ae565b620001f98683620001ae565b95508019841693508086168417925050509392505050565b6000819050919050565b6000819050919050565b600062000246620002406200023a8462000211565b6200021b565b62000211565b9050919050565b6000819050919050565b620002628362000225565b6200027a62000271826200024d565b848454620001bb565b825550505050565b600090565b6200029162000282565b6200029e81848462000257565b505050565b5b81811015620002c657620002ba60008262000287565b600181019050620002a4565b5050565b601f8211156200031557620002df8162000189565b620002ea846200019e565b81016020851015620002fa578190505b6200031262000309856200019e565b830182620002a3565b50505b505050565b600082821c905092915050565b60006200033a600019846008026200031a565b1980831691505092915050565b600062000355838362000327565b9150826002028217905092915050565b6200037082620000eb565b67ffffffffffffffff8111156200038c576200038b620000f6565b5b62000398825462000154565b620003a5828285620002ca565b600060209050601f831160018114620003dd5760008415620003c8578287015190505b620003d4858262000347565b86555062000444565b601f198416620003ed8662000189565b60005b828110156200041757848901518255600182019150602085019450602081019050620003f0565b8683101562000437578489015162000433601f89168262000327565b8355505b6001600288020188555050505b505050505050565b612de3806200045c6000396000f3fe608060405234801561001057600080fd5b506004361061010b5760003560e01c806370a08231116100a2578063b65e92ed11610071578063b65e92ed146102c8578063b88d4fde146102f8578063c87b56dd14610314578063e985e9c514610344578063efd5062e146103745761010b565b806370a082311461022e57806395d89b411461025e578063974f34ac1461027c578063a22cb465146102ac5761010b565b806323b872dd116100de57806323b872dd146101aa57806342842e0e146101c657806360c17642146101e25780636352211e146101fe5761010b565b806301ffc9a71461011057806306fdde0314610140578063081812fc1461015e578063095ea7b31461018e575b600080fd5b61012a60048036038101906101259190611c79565b6103a4565b6040516101379190611cc1565b60405180910390f35b610148610486565b6040516101559190611d6c565b60405180910390f35b61017860048036038101906101739190611dc4565b610518565b6040516101859190611e32565b60405180910390f35b6101a860048036038101906101a39190611e79565b61055e565b005b6101c460048036038101906101bf9190611eb9565b610675565b005b6101e060048036038101906101db9190611eb9565b6106d5565b005b6101fc60048036038101906101f79190611f0c565b6106f5565b005b61021860048036038101906102139190611dc4565b6107aa565b6040516102259190611e32565b60405180910390f35b61024860048036038101906102439190611f0c565b610830565b6040516102559190611f48565b60405180910390f35b6102666108e7565b6040516102739190611d6c565b60405180910390f35b61029660048036038101906102919190611f0c565b610979565b6040516102a39190611cc1565b60405180910390f35b6102c660048036038101906102c19190611f8f565b610999565b005b6102e260048036038101906102dd9190612104565b6109af565b6040516102ef9190611f48565b60405180910390f35b610312600480360381019061030d91906121ee565b610b17565b005b61032e60048036038101906103299190611dc4565b610b79565b60405161033b9190611d6c565b60405180910390f35b61035e60048036038101906103599190612271565b610c8b565b60405161036b9190611cc1565b60405180910390f35b61038e60048036038101906103899190611f0c565b610d1f565b60405161039b9190611d6c565b60405180910390f35b60007f80ac58cd000000000000000000000000000000000000000000000000000000007bffffffffffffffffffffffffffffffffffffffffffffffffffffffff1916827bffffffffffffffffffffffffffffffffffffffffffffffffffffffff1916148061046f57507f5b5e139f000000000000000000000000000000000000000000000000000000007bffffffffffffffffffffffffffffffffffffffffffffffffffffffff1916827bffffffffffffffffffffffffffffffffffffffffffffffffffffffff1916145b8061047f575061047e82610dbf565b5b9050919050565b606060008054610495906122e0565b80601f01602080910402602001604051908101604052809291908181526020018280546104c1906122e0565b801561050e5780601f106104e35761010080835404028352916020019161050e565b820191906000526020600020905b8154815290600101906020018083116104f157829003601f168201915b5050505050905090565b600061052382610e29565b6004600083815260200190815260200160002060009054906101000a900473ffffffffffffffffffffffffffffffffffffffff169050919050565b6000610569826107aa565b90508073ffffffffffffffffffffffffffffffffffffffff168373ffffffffffffffffffffffffffffffffffffffff16036105d9576040517f08c379a00000000000000000000000000000000000000000000000000000000081526004016105d090612383565b60405180910390fd5b8073ffffffffffffffffffffffffffffffffffffffff166105f8610e74565b73ffffffffffffffffffffffffffffffffffffffff161480610627575061062681610621610e74565b610c8b565b5b610666576040517f08c379a000000000000000000000000000000000000000000000000000000000815260040161065d90612415565b60405180910390fd5b6106708383610e7c565b505050565b610686610680610e74565b82610f35565b6106c5576040517f08c379a00000000000000000000000000000000000000000000000000000000081526004016106bc906124a7565b60405180910390fd5b6106d0838383610fca565b505050565b6106f083838360405180602001604052806000815250610b17565b505050565b600760009054906101000a900473ffffffffffffffffffffffffffffffffffffffff1673ffffffffffffffffffffffffffffffffffffffff163373ffffffffffffffffffffffffffffffffffffffff161461074f57600080fd5b6001600960008373ffffffffffffffffffffffffffffffffffffffff1673ffffffffffffffffffffffffffffffffffffffff16815260200190815260200160002060006101000a81548160ff02191690831515021790555050565b6000806107b6836112c3565b9050600073ffffffffffffffffffffffffffffffffffffffff168173ffffffffffffffffffffffffffffffffffffffff1603610827576040517f08c379a000000000000000000000000000000000000000000000000000000000815260040161081e90612513565b60405180910390fd5b80915050919050565b60008073ffffffffffffffffffffffffffffffffffffffff168273ffffffffffffffffffffffffffffffffffffffff16036108a0576040517f08c379a0000000000000000000000000000000000000000000000000000000008152600401610897906125a5565b60405180910390fd5b600360008373ffffffffffffffffffffffffffffffffffffffff1673ffffffffffffffffffffffffffffffffffffffff168152602001908152602001600020549050919050565b6060600180546108f6906122e0565b80601f0160208091040260200160405190810160405280929190818152602001828054610922906122e0565b801561096f5780601f106109445761010080835404028352916020019161096f565b820191906000526020600020905b81548152906001019060200180831161095257829003601f168201915b5050505050905090565b60096020528060005260406000206000915054906101000a900460ff1681565b6109ab6109a4610e74565b8383611300565b5050565b6000600960003373ffffffffffffffffffffffffffffffffffffffff1673ffffffffffffffffffffffffffffffffffffffff16815260200190815260200160002060009054906101000a900460ff16610a3d576040517f08c379a0000000000000000000000000000000000000000000000000000000008152600401610a3490612611565b60405180910390fd5b610a47600861146c565b6000610a536008611482565b9050610a5f3382611490565b610a6981846116ad565b82600a60003373ffffffffffffffffffffffffffffffffffffffff1673ffffffffffffffffffffffffffffffffffffffff1681526020019081526020016000209081610ab591906127dd565b506000600960003373ffffffffffffffffffffffffffffffffffffffff1673ffffffffffffffffffffffffffffffffffffffff16815260200190815260200160002060006101000a81548160ff02191690831515021790555080915050919050565b610b28610b22610e74565b83610f35565b610b67576040517f08c379a0000000000000000000000000000000000000000000000000000000008152600401610b5e906124a7565b60405180910390fd5b610b738484848461171a565b50505050565b6060610b8482610e29565b6000600660008481526020019081526020016000208054610ba4906122e0565b80601f0160208091040260200160405190810160405280929190818152602001828054610bd0906122e0565b8015610c1d5780601f10610bf257610100808354040283529160200191610c1d565b820191906000526020600020905b815481529060010190602001808311610c0057829003601f168201915b505050505090506000610c2e611776565b90506000815103610c43578192505050610c86565b600082511115610c78578082604051602001610c609291906128eb565b60405160208183030381529060405292505050610c86565b610c818461178d565b925050505b919050565b6000600560008473ffffffffffffffffffffffffffffffffffffffff1673ffffffffffffffffffffffffffffffffffffffff16815260200190815260200160002060008373ffffffffffffffffffffffffffffffffffffffff1673ffffffffffffffffffffffffffffffffffffffff16815260200190815260200160002060009054906101000a900460ff16905092915050565b600a6020528060005260406000206000915090508054610d3e906122e0565b80601f0160208091040260200160405190810160405280929190818152602001828054610d6a906122e0565b8015610db75780601f10610d8c57610100808354040283529160200191610db7565b820191906000526020600020905b815481529060010190602001808311610d9a57829003601f168201915b505050505081565b60007f01ffc9a7000000000000000000000000000000000000000000000000000000007bffffffffffffffffffffffffffffffffffffffffffffffffffffffff1916827bffffffffffffffffffffffffffffffffffffffffffffffffffffffff1916149050919050565b610e32816117f5565b610e71576040517f08c379a0000000000000000000000000000000000000000000000000000000008152600401610e6890612513565b60405180910390fd5b50565b600033905090565b816004600083815260200190815260200160002060006101000a81548173ffffffffffffffffffffffffffffffffffffffff021916908373ffffffffffffffffffffffffffffffffffffffff160217905550808273ffffffffffffffffffffffffffffffffffffffff16610eef836107aa565b73ffffffffffffffffffffffffffffffffffffffff167f8c5be1e5ebec7d5bd14f71427d1e84f3dd0314c0f7b2291e5b200ac8c7c3b92560405160405180910390a45050565b600080610f41836107aa565b90508073ffffffffffffffffffffffffffffffffffffffff168473ffffffffffffffffffffffffffffffffffffffff161480610f835750610f828185610c8b565b5b80610fc157508373ffffffffffffffffffffffffffffffffffffffff16610fa984610518565b73ffffffffffffffffffffffffffffffffffffffff16145b91505092915050565b8273ffffffffffffffffffffffffffffffffffffffff16610fea826107aa565b73ffffffffffffffffffffffffffffffffffffffff1614611040576040517f08c379a000000000000000000000000000000000000000000000000000000000815260040161103790612981565b60405180910390fd5b600073ffffffffffffffffffffffffffffffffffffffff168273ffffffffffffffffffffffffffffffffffffffff16036110af576040517f08c379a00000000000000000000000000000000000000000000000000000000081526004016110a690612a13565b60405180910390fd5b6110bc8383836001611836565b8273ffffffffffffffffffffffffffffffffffffffff166110dc826107aa565b73ffffffffffffffffffffffffffffffffffffffff1614611132576040517f08c379a000000000000000000000000000000000000000000000000000000000815260040161112990612981565b60405180910390fd5b6004600082815260200190815260200160002060006101000a81549073ffffffffffffffffffffffffffffffffffffffff02191690556001600360008573ffffffffffffffffffffffffffffffffffffffff1673ffffffffffffffffffffffffffffffffffffffff168152602001908152602001600020600082825403925050819055506001600360008473ffffffffffffffffffffffffffffffffffffffff1673ffffffffffffffffffffffffffffffffffffffff16815260200190815260200160002060008282540192505081905550816002600083815260200190815260200160002060006101000a81548173ffffffffffffffffffffffffffffffffffffffff021916908373ffffffffffffffffffffffffffffffffffffffff160217905550808273ffffffffffffffffffffffffffffffffffffffff168473ffffffffffffffffffffffffffffffffffffffff167fddf252ad1be2c89b69c2b068fc378daa952ba7f163c4a11628f55a4df523b3ef60405160405180910390a46112be838383600161183c565b505050565b60006002600083815260200190815260200160002060009054906101000a900473ffffffffffffffffffffffffffffffffffffffff169050919050565b8173ffffffffffffffffffffffffffffffffffffffff168373ffffffffffffffffffffffffffffffffffffffff160361136e576040517f08c379a000000000000000000000000000000000000000000000000000000000815260040161136590612a7f565b60405180910390fd5b80600560008573ffffffffffffffffffffffffffffffffffffffff1673ffffffffffffffffffffffffffffffffffffffff16815260200190815260200160002060008473ffffffffffffffffffffffffffffffffffffffff1673ffffffffffffffffffffffffffffffffffffffff16815260200190815260200160002060006101000a81548160ff0219169083151502179055508173ffffffffffffffffffffffffffffffffffffffff168373ffffffffffffffffffffffffffffffffffffffff167f17307eab39ab6107e8899845ad3d59bd9653f200f220920489ca2b5937696c318360405161145f9190611cc1565b60405180910390a3505050565b6001816000016000828254019250508190555050565b600081600001549050919050565b600073ffffffffffffffffffffffffffffffffffffffff168273ffffffffffffffffffffffffffffffffffffffff16036114ff576040517f08c379a00000000000000000000000000000000000000000000000000000000081526004016114f690612aeb565b60405180910390fd5b611508816117f5565b15611548576040517f08c379a000000000000000000000000000000000000000000000000000000000815260040161153f90612b57565b60405180910390fd5b611556600083836001611836565b61155f816117f5565b1561159f576040517f08c379a000000000000000000000000000000000000000000000000000000000815260040161159690612b57565b60405180910390fd5b6001600360008473ffffffffffffffffffffffffffffffffffffffff1673ffffffffffffffffffffffffffffffffffffffff16815260200190815260200160002060008282540192505081905550816002600083815260200190815260200160002060006101000a81548173ffffffffffffffffffffffffffffffffffffffff021916908373ffffffffffffffffffffffffffffffffffffffff160217905550808273ffffffffffffffffffffffffffffffffffffffff16600073ffffffffffffffffffffffffffffffffffffffff167fddf252ad1be2c89b69c2b068fc378daa952ba7f163c4a11628f55a4df523b3ef60405160405180910390a46116a960008383600161183c565b5050565b6116b6826117f5565b6116f5576040517f08c379a00000000000000000000000000000000000000000000000000000000081526004016116ec90612be9565b60405180910390fd5b8060066000848152602001908152602001600020908161171591906127dd565b505050565b611725848484610fca565b61173184848484611842565b611770576040517f08c379a000000000000000000000000000000000000000000000000000000000815260040161176790612c7b565b60405180910390fd5b50505050565b606060405180602001604052806000815250905090565b606061179882610e29565b60006117a2611776565b905060008151116117c257604051806020016040528060008152506117ed565b806117cc846119c9565b6040516020016117dd9291906128eb565b6040516020818303038152906040525b915050919050565b60008073ffffffffffffffffffffffffffffffffffffffff16611817836112c3565b73ffffffffffffffffffffffffffffffffffffffff1614159050919050565b50505050565b50505050565b60006118638473ffffffffffffffffffffffffffffffffffffffff16611a97565b156119bc578373ffffffffffffffffffffffffffffffffffffffff1663150b7a0261188c610e74565b8786866040518563ffffffff1660e01b81526004016118ae9493929190612cf0565b6020604051808303816000875af19250505080156118ea57506040513d601f19601f820116820180604052508101906118e79190612d51565b60015b61196c573d806000811461191a576040519150601f19603f3d011682016040523d82523d6000602084013e61191f565b606091505b506000815103611964576040517f08c379a000000000000000000000000000000000000000000000000000000000815260040161195b90612c7b565b60405180910390fd5b805181602001fd5b63150b7a0260e01b7bffffffffffffffffffffffffffffffffffffffffffffffffffffffff1916817bffffffffffffffffffffffffffffffffffffffffffffffffffffffff1916149150506119c1565b600190505b949350505050565b6060600060016119d884611aba565b01905060008167ffffffffffffffff8111156119f7576119f6611fd9565b5b6040519080825280601f01601f191660200182016040528015611a295781602001600182028036833780820191505090505b509050600082602001820190505b600115611a8c578080600190039150507f3031323334353637383961626364656600000000000000000000000000000000600a86061a8153600a8581611a8057611a7f612d7e565b5b04945060008503611a37575b819350505050919050565b6000808273ffffffffffffffffffffffffffffffffffffffff163b119050919050565b600080600090507a184f03e93ff9f4daa797ed6e38ed64bf6a1f0100000000000000008310611b18577a184f03e93ff9f4daa797ed6e38ed64bf6a1f0100000000000000008381611b0e57611b0d612d7e565b5b0492506040810190505b6d04ee2d6d415b85acef81000000008310611b55576d04ee2d6d415b85acef81000000008381611b4b57611b4a612d7e565b5b0492506020810190505b662386f26fc100008310611b8457662386f26fc100008381611b7a57611b79612d7e565b5b0492506010810190505b6305f5e1008310611bad576305f5e1008381611ba357611ba2612d7e565b5b0492506008810190505b6127108310611bd2576127108381611bc857611bc7612d7e565b5b0492506004810190505b60648310611bf55760648381611beb57611bea612d7e565b5b0492506002810190505b600a8310611c04576001810190505b80915050919050565b6000604051905090565b600080fd5b600080fd5b60007fffffffff0000000000000000000000000000000000000000000000000000000082169050919050565b611c5681611c21565b8114611c6157600080fd5b50565b600081359050611c7381611c4d565b92915050565b600060208284031215611c8f57611c8e611c17565b5b6000611c9d84828501611c64565b91505092915050565b60008115159050919050565b611cbb81611ca6565b82525050565b6000602082019050611cd66000830184611cb2565b92915050565b600081519050919050565b600082825260208201905092915050565b60005b83811015611d16578082015181840152602081019050611cfb565b60008484015250505050565b6000601f19601f8301169050919050565b6000611d3e82611cdc565b611d488185611ce7565b9350611d58818560208601611cf8565b611d6181611d22565b840191505092915050565b60006020820190508181036000830152611d868184611d33565b905092915050565b6000819050919050565b611da181611d8e565b8114611dac57600080fd5b50565b600081359050611dbe81611d98565b92915050565b600060208284031215611dda57611dd9611c17565b5b6000611de884828501611daf565b91505092915050565b600073ffffffffffffffffffffffffffffffffffffffff82169050919050565b6000611e1c82611df1565b9050919050565b611e2c81611e11565b82525050565b6000602082019050611e476000830184611e23565b92915050565b611e5681611e11565b8114611e6157600080fd5b50565b600081359050611e7381611e4d565b92915050565b60008060408385031215611e9057611e8f611c17565b5b6000611e9e85828601611e64565b9250506020611eaf85828601611daf565b9150509250929050565b600080600060608486031215611ed257611ed1611c17565b5b6000611ee086828701611e64565b9350506020611ef186828701611e64565b9250506040611f0286828701611daf565b9150509250925092565b600060208284031215611f2257611f21611c17565b5b6000611f3084828501611e64565b91505092915050565b611f4281611d8e565b82525050565b6000602082019050611f5d6000830184611f39565b92915050565b611f6c81611ca6565b8114611f7757600080fd5b50565b600081359050611f8981611f63565b92915050565b60008060408385031215611fa657611fa5611c17565b5b6000611fb485828601611e64565b9250506020611fc585828601611f7a565b9150509250929050565b600080fd5b600080fd5b7f4e487b7100000000000000000000000000000000000000000000000000000000600052604160045260246000fd5b61201182611d22565b810181811067ffffffffffffffff821117156120305761202f611fd9565b5b80604052505050565b6000612043611c0d565b905061204f8282612008565b919050565b600067ffffffffffffffff82111561206f5761206e611fd9565b5b61207882611d22565b9050602081019050919050565b82818337600083830152505050565b60006120a76120a284612054565b612039565b9050828152602081018484840111156120c3576120c2611fd4565b5b6120ce848285612085565b509392505050565b600082601f8301126120eb576120ea611fcf565b5b81356120fb848260208601612094565b91505092915050565b60006020828403121561211a57612119611c17565b5b600082013567ffffffffffffffff81111561213857612137611c1c565b5b612144848285016120d6565b91505092915050565b600067ffffffffffffffff82111561216857612167611fd9565b5b61217182611d22565b9050602081019050919050565b600061219161218c8461214d565b612039565b9050828152602081018484840111156121ad576121ac611fd4565b5b6121b8848285612085565b509392505050565b600082601f8301126121d5576121d4611fcf565b5b81356121e584826020860161217e565b91505092915050565b6000806000806080858703121561220857612207611c17565b5b600061221687828801611e64565b945050602061222787828801611e64565b935050604061223887828801611daf565b925050606085013567ffffffffffffffff81111561225957612258611c1c565b5b612265878288016121c0565b91505092959194509250565b6000806040838503121561228857612287611c17565b5b600061229685828601611e64565b92505060206122a785828601611e64565b9150509250929050565b7f4e487b7100000000000000000000000000000000000000000000000000000000600052602260045260246000fd5b600060028204905060018216806122f857607f821691505b60208210810361230b5761230a6122b1565b5b50919050565b7f4552433732313a20617070726f76616c20746f2063757272656e74206f776e6560008201527f7200000000000000000000000000000000000000000000000000000000000000602082015250565b600061236d602183611ce7565b915061237882612311565b604082019050919050565b6000602082019050818103600083015261239c81612360565b9050919050565b7f4552433732313a20617070726f76652063616c6c6572206973206e6f7420746f60008201527f6b656e206f776e6572206f7220617070726f76656420666f7220616c6c000000602082015250565b60006123ff603d83611ce7565b915061240a826123a3565b604082019050919050565b6000602082019050818103600083015261242e816123f2565b9050919050565b7f4552433732313a2063616c6c6572206973206e6f7420746f6b656e206f776e6560008201527f72206f7220617070726f76656400000000000000000000000000000000000000602082015250565b6000612491602d83611ce7565b915061249c82612435565b604082019050919050565b600060208201905081810360008301526124c081612484565b9050919050565b7f4552433732313a20696e76616c696420746f6b656e2049440000000000000000600082015250565b60006124fd601883611ce7565b9150612508826124c7565b602082019050919050565b6000602082019050818103600083015261252c816124f0565b9050919050565b7f4552433732313a2061646472657373207a65726f206973206e6f74206120766160008201527f6c6964206f776e65720000000000000000000000000000000000000000000000602082015250565b600061258f602983611ce7565b915061259a82612533565b604082019050919050565b600060208201905081810360008301526125be81612582565b9050919050565b7f4365727469666963617465206973206e6f742069737375656400000000000000600082015250565b60006125fb601983611ce7565b9150612606826125c5565b602082019050919050565b6000602082019050818103600083015261262a816125ee565b9050919050565b60008190508160005260206000209050919050565b60006020601f8301049050919050565b600082821b905092915050565b6000600883026126937fffffffffffffffffffffffffffffffffffffffffffffffffffffffffffffffff82612656565b61269d8683612656565b95508019841693508086168417925050509392505050565b6000819050919050565b60006126da6126d56126d084611d8e565b6126b5565b611d8e565b9050919050565b6000819050919050565b6126f4836126bf565b612708612700826126e1565b848454612663565b825550505050565b600090565b61271d612710565b6127288184846126eb565b505050565b5b8181101561274c57612741600082612715565b60018101905061272e565b5050565b601f8211156127915761276281612631565b61276b84612646565b8101602085101561277a578190505b61278e61278685612646565b83018261272d565b50505b505050565b600082821c905092915050565b60006127b460001984600802612796565b1980831691505092915050565b60006127cd83836127a3565b9150826002028217905092915050565b6127e682611cdc565b67ffffffffffffffff8111156127ff576127fe611fd9565b5b61280982546122e0565b612814828285612750565b600060209050601f8311600181146128475760008415612835578287015190505b61283f85826127c1565b8655506128a7565b601f19841661285586612631565b60005b8281101561287d57848901518255600182019150602085019450602081019050612858565b8683101561289a5784890151612896601f8916826127a3565b8355505b6001600288020188555050505b505050505050565b600081905092915050565b60006128c582611cdc565b6128cf81856128af565b93506128df818560208601611cf8565b80840191505092915050565b60006128f782856128ba565b915061290382846128ba565b91508190509392505050565b7f4552433732313a207472616e736665722066726f6d20696e636f72726563742060008201527f6f776e6572000000000000000000000000000000000000000000000000000000602082015250565b600061296b602583611ce7565b91506129768261290f565b604082019050919050565b6000602082019050818103600083015261299a8161295e565b9050919050565b7f4552433732313a207472616e7366657220746f20746865207a65726f2061646460008201527f7265737300000000000000000000000000000000000000000000000000000000602082015250565b60006129fd602483611ce7565b9150612a08826129a1565b604082019050919050565b60006020820190508181036000830152612a2c816129f0565b9050919050565b7f4552433732313a20617070726f766520746f2063616c6c657200000000000000600082015250565b6000612a69601983611ce7565b9150612a7482612a33565b602082019050919050565b60006020820190508181036000830152612a9881612a5c565b9050919050565b7f4552433732313a206d696e7420746f20746865207a65726f2061646472657373600082015250565b6000612ad5602083611ce7565b9150612ae082612a9f565b602082019050919050565b60006020820190508181036000830152612b0481612ac8565b9050919050565b7f4552433732313a20746f6b656e20616c7265616479206d696e74656400000000600082015250565b6000612b41601c83611ce7565b9150612b4c82612b0b565b602082019050919050565b60006020820190508181036000830152612b7081612b34565b9050919050565b7f45524337323155524953746f726167653a2055524920736574206f66206e6f6e60008201527f6578697374656e7420746f6b656e000000000000000000000000000000000000602082015250565b6000612bd3602e83611ce7565b9150612bde82612b77565b604082019050919050565b60006020820190508181036000830152612c0281612bc6565b9050919050565b7f4552433732313a207472616e7366657220746f206e6f6e20455243373231526560008201527f63656976657220696d706c656d656e7465720000000000000000000000000000602082015250565b6000612c65603283611ce7565b9150612c7082612c09565b604082019050919050565b60006020820190508181036000830152612c9481612c58565b9050919050565b600081519050919050565b600082825260208201905092915050565b6000612cc282612c9b565b612ccc8185612ca6565b9350612cdc818560208601611cf8565b612ce581611d22565b840191505092915050565b6000608082019050612d056000830187611e23565b612d126020830186611e23565b612d1f6040830185611f39565b8181036060830152612d318184612cb7565b905095945050505050565b600081519050612d4b81611c4d565b92915050565b600060208284031215612d6757612d66611c17565b5b6000612d7584828501612d3c565b91505092915050565b7f4e487b7100000000000000000000000000000000000000000000000000000000600052601260045260246000fdfea2646970667358221220af909eafba398e82f2e64ff52bb4e7711a6b16694e9e970695a7839d052e919964736f6c63430008120033",
  "linkReferences": {},
  "deployedLinkReferences": {}
}